{
    "_format": "hh-sol-artifact-1",
    "contractName": "NFTCollectible",
    "sourceName": "contracts/NFTCollectible.sol",
    "abi": [
        {
            "inputs": [
                {
                    "internalType": "string",
                    "name": "baseURI",
                    "type": "string"
                }
            ],
            "stateMutability": "nonpayable",
            "type": "constructor"
        },
        {
            "anonymous": false,
            "inputs": [
                {
                    "indexed": true,
                    "internalType": "address",
                    "name": "owner",
                    "type": "address"
                },
                {
                    "indexed": true,
                    "internalType": "address",
                    "name": "approved",
                    "type": "address"
                },
                {
                    "indexed": true,
                    "internalType": "uint256",
                    "name": "tokenId",
                    "type": "uint256"
                }
            ],
            "name": "Approval",
            "type": "event"
        },
        {
            "anonymous": false,
            "inputs": [
                {
                    "indexed": true,
                    "internalType": "address",
                    "name": "owner",
                    "type": "address"
                },
                {
                    "indexed": true,
                    "internalType": "address",
                    "name": "operator",
                    "type": "address"
                },
                {
                    "indexed": false,
                    "internalType": "bool",
                    "name": "approved",
                    "type": "bool"
                }
            ],
            "name": "ApprovalForAll",
            "type": "event"
        },
        {
            "anonymous": false,
            "inputs": [
                {
                    "indexed": true,
                    "internalType": "address",
                    "name": "previousOwner",
                    "type": "address"
                },
                {
                    "indexed": true,
                    "internalType": "address",
                    "name": "newOwner",
                    "type": "address"
                }
            ],
            "name": "OwnershipTransferred",
            "type": "event"
        },
        {
            "anonymous": false,
            "inputs": [
                {
                    "indexed": true,
                    "internalType": "address",
                    "name": "from",
                    "type": "address"
                },
                {
                    "indexed": true,
                    "internalType": "address",
                    "name": "to",
                    "type": "address"
                },
                {
                    "indexed": true,
                    "internalType": "uint256",
                    "name": "tokenId",
                    "type": "uint256"
                }
            ],
            "name": "Transfer",
            "type": "event"
        },
        {
            "inputs": [],
            "name": "MAX_PER_MINT",
            "outputs": [
                {
                    "internalType": "uint256",
                    "name": "",
                    "type": "uint256"
                }
            ],
            "stateMutability": "view",
            "type": "function"
        },
        {
            "inputs": [],
            "name": "MAX_SUPPLY",
            "outputs": [
                {
                    "internalType": "uint256",
                    "name": "",
                    "type": "uint256"
                }
            ],
            "stateMutability": "view",
            "type": "function"
        },
        {
            "inputs": [],
            "name": "PRICE",
            "outputs": [
                {
                    "internalType": "uint256",
                    "name": "",
                    "type": "uint256"
                }
            ],
            "stateMutability": "view",
            "type": "function"
        },
        {
            "inputs": [
                {
                    "internalType": "address",
                    "name": "to",
                    "type": "address"
                },
                {
                    "internalType": "uint256",
                    "name": "tokenId",
                    "type": "uint256"
                }
            ],
            "name": "approve",
            "outputs": [],
            "stateMutability": "nonpayable",
            "type": "function"
        },
        {
            "inputs": [
                {
                    "internalType": "address",
                    "name": "owner",
                    "type": "address"
                }
            ],
            "name": "balanceOf",
            "outputs": [
                {
                    "internalType": "uint256",
                    "name": "",
                    "type": "uint256"
                }
            ],
            "stateMutability": "view",
            "type": "function"
        },
        {
            "inputs": [],
            "name": "baseTokenURI",
            "outputs": [
                {
                    "internalType": "string",
                    "name": "",
                    "type": "string"
                }
            ],
            "stateMutability": "view",
            "type": "function"
        },
        {
            "inputs": [
                {
                    "internalType": "uint256",
                    "name": "tokenId",
                    "type": "uint256"
                }
            ],
            "name": "getApproved",
            "outputs": [
                {
                    "internalType": "address",
                    "name": "",
                    "type": "address"
                }
            ],
            "stateMutability": "view",
            "type": "function"
        },
        {
            "inputs": [
                {
                    "internalType": "address",
                    "name": "owner",
                    "type": "address"
                },
                {
                    "internalType": "address",
                    "name": "operator",
                    "type": "address"
                }
            ],
            "name": "isApprovedForAll",
            "outputs": [
                {
                    "internalType": "bool",
                    "name": "",
                    "type": "bool"
                }
            ],
            "stateMutability": "view",
            "type": "function"
        },
        {
            "inputs": [
                {
                    "internalType": "uint256",
                    "name": "_count",
                    "type": "uint256"
                }
            ],
            "name": "mintNFTs",
            "outputs": [],
            "stateMutability": "payable",
            "type": "function"
        },
        {
            "inputs": [],
            "name": "name",
            "outputs": [
                {
                    "internalType": "string",
                    "name": "",
                    "type": "string"
                }
            ],
            "stateMutability": "view",
            "type": "function"
        },
        {
            "inputs": [],
            "name": "owner",
            "outputs": [
                {
                    "internalType": "address",
                    "name": "",
                    "type": "address"
                }
            ],
            "stateMutability": "view",
            "type": "function"
        },
        {
            "inputs": [
                {
                    "internalType": "uint256",
                    "name": "tokenId",
                    "type": "uint256"
                }
            ],
            "name": "ownerOf",
            "outputs": [
                {
                    "internalType": "address",
                    "name": "",
                    "type": "address"
                }
            ],
            "stateMutability": "view",
            "type": "function"
        },
        {
            "inputs": [],
            "name": "renounceOwnership",
            "outputs": [],
            "stateMutability": "nonpayable",
            "type": "function"
        },
        {
            "inputs": [],
            "name": "reserveNFTs",
            "outputs": [],
            "stateMutability": "nonpayable",
            "type": "function"
        },
        {
            "inputs": [
                {
                    "internalType": "address",
                    "name": "from",
                    "type": "address"
                },
                {
                    "internalType": "address",
                    "name": "to",
                    "type": "address"
                },
                {
                    "internalType": "uint256",
                    "name": "tokenId",
                    "type": "uint256"
                }
            ],
            "name": "safeTransferFrom",
            "outputs": [],
            "stateMutability": "nonpayable",
            "type": "function"
        },
        {
            "inputs": [
                {
                    "internalType": "address",
                    "name": "from",
                    "type": "address"
                },
                {
                    "internalType": "address",
                    "name": "to",
                    "type": "address"
                },
                {
                    "internalType": "uint256",
                    "name": "tokenId",
                    "type": "uint256"
                },
                {
                    "internalType": "bytes",
                    "name": "data",
                    "type": "bytes"
                }
            ],
            "name": "safeTransferFrom",
            "outputs": [],
            "stateMutability": "nonpayable",
            "type": "function"
        },
        {
            "inputs": [
                {
                    "internalType": "address",
                    "name": "operator",
                    "type": "address"
                },
                {
                    "internalType": "bool",
                    "name": "approved",
                    "type": "bool"
                }
            ],
            "name": "setApprovalForAll",
            "outputs": [],
            "stateMutability": "nonpayable",
            "type": "function"
        },
        {
            "inputs": [
                {
                    "internalType": "string",
                    "name": "_baseTokenURI",
                    "type": "string"
                }
            ],
            "name": "setBaseURI",
            "outputs": [],
            "stateMutability": "nonpayable",
            "type": "function"
        },
        {
            "inputs": [
                {
                    "internalType": "bytes4",
                    "name": "interfaceId",
                    "type": "bytes4"
                }
            ],
            "name": "supportsInterface",
            "outputs": [
                {
                    "internalType": "bool",
                    "name": "",
                    "type": "bool"
                }
            ],
            "stateMutability": "view",
            "type": "function"
        },
        {
            "inputs": [],
            "name": "symbol",
            "outputs": [
                {
                    "internalType": "string",
                    "name": "",
                    "type": "string"
                }
            ],
            "stateMutability": "view",
            "type": "function"
        },
        {
            "inputs": [
                {
                    "internalType": "uint256",
                    "name": "index",
                    "type": "uint256"
                }
            ],
            "name": "tokenByIndex",
            "outputs": [
                {
                    "internalType": "uint256",
                    "name": "",
                    "type": "uint256"
                }
            ],
            "stateMutability": "view",
            "type": "function"
        },
        {
            "inputs": [
                {
                    "internalType": "address",
                    "name": "owner",
                    "type": "address"
                },
                {
                    "internalType": "uint256",
                    "name": "index",
                    "type": "uint256"
                }
            ],
            "name": "tokenOfOwnerByIndex",
            "outputs": [
                {
                    "internalType": "uint256",
                    "name": "",
                    "type": "uint256"
                }
            ],
            "stateMutability": "view",
            "type": "function"
        },
        {
            "inputs": [
                {
                    "internalType": "uint256",
                    "name": "tokenId",
                    "type": "uint256"
                }
            ],
            "name": "tokenURI",
            "outputs": [
                {
                    "internalType": "string",
                    "name": "",
                    "type": "string"
                }
            ],
            "stateMutability": "view",
            "type": "function"
        },
        {
            "inputs": [
                {
                    "internalType": "address",
                    "name": "_owner",
                    "type": "address"
                }
            ],
            "name": "tokensOfOwner",
            "outputs": [
                {
                    "internalType": "uint256[]",
                    "name": "",
                    "type": "uint256[]"
                }
            ],
            "stateMutability": "view",
            "type": "function"
        },
        {
            "inputs": [],
            "name": "totalSupply",
            "outputs": [
                {
                    "internalType": "uint256",
                    "name": "",
                    "type": "uint256"
                }
            ],
            "stateMutability": "view",
            "type": "function"
        },
        {
            "inputs": [
                {
                    "internalType": "address",
                    "name": "from",
                    "type": "address"
                },
                {
                    "internalType": "address",
                    "name": "to",
                    "type": "address"
                },
                {
                    "internalType": "uint256",
                    "name": "tokenId",
                    "type": "uint256"
                }
            ],
            "name": "transferFrom",
            "outputs": [],
            "stateMutability": "nonpayable",
            "type": "function"
        },
        {
            "inputs": [
                {
                    "internalType": "address",
                    "name": "newOwner",
                    "type": "address"
                }
            ],
            "name": "transferOwnership",
            "outputs": [],
            "stateMutability": "nonpayable",
            "type": "function"
        },
        {
            "inputs": [],
            "name": "withdraw",
            "outputs": [],
            "stateMutability": "payable",
            "type": "function"
        }
    ],
    "bytecode": "0x60806040523480156200001157600080fd5b506040516200443138038062004431833981810160405281019062000037919062000511565b6040518060400160405280600f81526020017f4e465420436f6c6c65637469626c6500000000000000000000000000000000008152506040518060400160405280600481526020017f4e465443000000000000000000000000000000000000000000000000000000008152508160009080519060200190620000bb929190620002c4565b508060019080519060200190620000d4929190620002c4565b505050620000f7620000eb6200010f60201b60201c565b6200011760201b60201c565b6200010881620001dd60201b60201c565b506200064a565b600033905090565b6000600a60009054906101000a900473ffffffffffffffffffffffffffffffffffffffff16905081600a60006101000a81548173ffffffffffffffffffffffffffffffffffffffff021916908373ffffffffffffffffffffffffffffffffffffffff1602179055508173ffffffffffffffffffffffffffffffffffffffff168173ffffffffffffffffffffffffffffffffffffffff167f8be0079c531659141344cd1fd0a4f28419497f9722a3daafe3b4186f6b6457e060405160405180910390a35050565b620001ed6200020960201b60201c565b80600c908051906020019062000205929190620002c4565b5050565b620002196200010f60201b60201c565b73ffffffffffffffffffffffffffffffffffffffff166200023f6200029a60201b60201c565b73ffffffffffffffffffffffffffffffffffffffff161462000298576040517f08c379a00000000000000000000000000000000000000000000000000000000081526004016200028f90620005c3565b60405180910390fd5b565b6000600a60009054906101000a900473ffffffffffffffffffffffffffffffffffffffff16905090565b828054620002d29062000614565b90600052602060002090601f016020900481019282620002f6576000855562000342565b82601f106200031157805160ff191683800117855562000342565b8280016001018555821562000342579182015b828111156200034157825182559160200191906001019062000324565b5b50905062000351919062000355565b5090565b5b808211156200037057600081600090555060010162000356565b5090565b6000604051905090565b600080fd5b600080fd5b600080fd5b600080fd5b6000601f19601f8301169050919050565b7f4e487b7100000000000000000000000000000000000000000000000000000000600052604160045260246000fd5b620003dd8262000392565b810181811067ffffffffffffffff82111715620003ff57620003fe620003a3565b5b80604052505050565b60006200041462000374565b9050620004228282620003d2565b919050565b600067ffffffffffffffff821115620004455762000444620003a3565b5b620004508262000392565b9050602081019050919050565b60005b838110156200047d57808201518184015260208101905062000460565b838111156200048d576000848401525b50505050565b6000620004aa620004a48462000427565b62000408565b905082815260208101848484011115620004c957620004c86200038d565b5b620004d68482856200045d565b509392505050565b600082601f830112620004f657620004f562000388565b5b81516200050884826020860162000493565b91505092915050565b6000602082840312156200052a57620005296200037e565b5b600082015167ffffffffffffffff8111156200054b576200054a62000383565b5b6200055984828501620004de565b91505092915050565b600082825260208201905092915050565b7f4f776e61626c653a2063616c6c6572206973206e6f7420746865206f776e6572600082015250565b6000620005ab60208362000562565b9150620005b88262000573565b602082019050919050565b60006020820190508181036000830152620005de816200059c565b9050919050565b7f4e487b7100000000000000000000000000000000000000000000000000000000600052602260045260246000fd5b600060028204905060018216806200062d57607f821691505b60208210811415620006445762000643620005e5565b5b50919050565b613dd7806200065a6000396000f3fe6080604052600436106101b75760003560e01c806355f804b3116100ec57806395d89b411161008a578063c87b56dd11610064578063c87b56dd146105de578063d547cfb71461061b578063e985e9c514610646578063f2fde38b14610683576101b7565b806395d89b4114610561578063a22cb4651461058c578063b88d4fde146105b5576101b7565b8063715018a6116100c6578063715018a6146104b75780638462151c146104ce5780638d859f3e1461050b5780638da5cb5b14610536576101b7565b806355f804b3146104145780636352211e1461043d57806370a082311461047a576101b7565b806323b872dd116101595780633b4b1381116101335780633b4b1381146103885780633ccfd60b146103a457806342842e0e146103ae5780634f6ccce7146103d7576101b7565b806323b872dd146102f75780632f745c591461032057806332cb6b0c1461035d576101b7565b8063095ea7b311610195578063095ea7b31461026157806309d42b301461028a578063144100c7146102b557806318160ddd146102cc576101b7565b806301ffc9a7146101bc57806306fdde03146101f9578063081812fc14610224575b600080fd5b3480156101c857600080fd5b506101e360048036038101906101de91906127a7565b6106ac565b6040516101f091906127ef565b60405180910390f35b34801561020557600080fd5b5061020e610726565b60405161021b91906128a3565b60405180910390f35b34801561023057600080fd5b5061024b600480360381019061024691906128fb565b6107b8565b6040516102589190612969565b60405180910390f35b34801561026d57600080fd5b50610288600480360381019061028391906129b0565b6107fe565b005b34801561029657600080fd5b5061029f610916565b6040516102ac91906129ff565b60405180910390f35b3480156102c157600080fd5b506102ca61091b565b005b3480156102d857600080fd5b506102e16109b2565b6040516102ee91906129ff565b60405180910390f35b34801561030357600080fd5b5061031e60048036038101906103199190612a1a565b6109bf565b005b34801561032c57600080fd5b50610347600480360381019061034291906129b0565b610a1f565b60405161035491906129ff565b60405180910390f35b34801561036957600080fd5b50610372610ac4565b60405161037f91906129ff565b60405180910390f35b6103a2600480360381019061039d91906128fb565b610ac9565b005b6103ac610c05565b005b3480156103ba57600080fd5b506103d560048036038101906103d09190612a1a565b610d05565b005b3480156103e357600080fd5b506103fe60048036038101906103f991906128fb565b610d25565b60405161040b91906129ff565b60405180910390f35b34801561042057600080fd5b5061043b60048036038101906104369190612ba2565b610d96565b005b34801561044957600080fd5b50610464600480360381019061045f91906128fb565b610db8565b6040516104719190612969565b60405180910390f35b34801561048657600080fd5b506104a1600480360381019061049c9190612beb565b610e6a565b6040516104ae91906129ff565b60405180910390f35b3480156104c357600080fd5b506104cc610f22565b005b3480156104da57600080fd5b506104f560048036038101906104f09190612beb565b610f36565b6040516105029190612cd6565b60405180910390f35b34801561051757600080fd5b50610520610fe4565b60405161052d91906129ff565b60405180910390f35b34801561054257600080fd5b5061054b610ff0565b6040516105589190612969565b60405180910390f35b34801561056d57600080fd5b5061057661101a565b60405161058391906128a3565b60405180910390f35b34801561059857600080fd5b506105b360048036038101906105ae9190612d24565b6110ac565b005b3480156105c157600080fd5b506105dc60048036038101906105d79190612e05565b6110c2565b005b3480156105ea57600080fd5b50610605600480360381019061060091906128fb565b611124565b60405161061291906128a3565b60405180910390f35b34801561062757600080fd5b5061063061118c565b60405161063d91906128a3565b60405180910390f35b34801561065257600080fd5b5061066d60048036038101906106689190612e88565b61121a565b60405161067a91906127ef565b60405180910390f35b34801561068f57600080fd5b506106aa60048036038101906106a59190612beb565b6112ae565b005b60007f780e9d63000000000000000000000000000000000000000000000000000000007bffffffffffffffffffffffffffffffffffffffffffffffffffffffff1916827bffffffffffffffffffffffffffffffffffffffffffffffffffffffff1916148061071f575061071e82611332565b5b9050919050565b60606000805461073590612ef7565b80601f016020809104026020016040519081016040528092919081815260200182805461076190612ef7565b80156107ae5780601f10610783576101008083540402835291602001916107ae565b820191906000526020600020905b81548152906001019060200180831161079157829003601f168201915b5050505050905090565b60006107c382611414565b6004600083815260200190815260200160002060009054906101000a900473ffffffffffffffffffffffffffffffffffffffff169050919050565b600061080982610db8565b90508073ffffffffffffffffffffffffffffffffffffffff168373ffffffffffffffffffffffffffffffffffffffff16141561087a576040517f08c379a000000000000000000000000000000000000000000000000000000000815260040161087190612f9b565b60405180910390fd5b8073ffffffffffffffffffffffffffffffffffffffff1661089961145f565b73ffffffffffffffffffffffffffffffffffffffff1614806108c857506108c7816108c261145f565b61121a565b5b610907576040517f08c379a00000000000000000000000000000000000000000000000000000000081526004016108fe9061302d565b60405180910390fd5b6109118383611467565b505050565b600381565b610923611520565b600061092f600b61159e565b9050601e610947600a836115ac90919063ffffffff16565b10610987576040517f08c379a000000000000000000000000000000000000000000000000000000000815260040161097e90613099565b60405180910390fd5b60005b600a8110156109ae5761099b6115c2565b80806109a6906130e8565b91505061098a565b5050565b6000600880549050905090565b6109d06109ca61145f565b826115e7565b610a0f576040517f08c379a0000000000000000000000000000000000000000000000000000000008152600401610a06906131a3565b60405180910390fd5b610a1a83838361167c565b505050565b6000610a2a83610e6a565b8210610a6b576040517f08c379a0000000000000000000000000000000000000000000000000000000008152600401610a6290613235565b60405180910390fd5b600660008473ffffffffffffffffffffffffffffffffffffffff1673ffffffffffffffffffffffffffffffffffffffff168152602001908152602001600020600083815260200190815260200160002054905092915050565b601e81565b6000610ad5600b61159e565b9050601e610aec83836115ac90919063ffffffff16565b1115610b2d576040517f08c379a0000000000000000000000000000000000000000000000000000000008152600401610b24906132a1565b60405180910390fd5b600082118015610b3e575060038211155b610b7d576040517f08c379a0000000000000000000000000000000000000000000000000000000008152600401610b7490613333565b60405180910390fd5b610b988267ebec21ee1da400006118e390919063ffffffff16565b341015610bda576040517f08c379a0000000000000000000000000000000000000000000000000000000008152600401610bd1906133c5565b60405180910390fd5b60005b82811015610c0057610bed6115c2565b8080610bf8906130e8565b915050610bdd565b505050565b610c0d611520565b600047905060008111610c55576040517f08c379a0000000000000000000000000000000000000000000000000000000008152600401610c4c90613431565b60405180910390fd5b60003373ffffffffffffffffffffffffffffffffffffffff1682604051610c7b90613482565b60006040518083038185875af1925050503d8060008114610cb8576040519150601f19603f3d011682016040523d82523d6000602084013e610cbd565b606091505b5050905080610d01576040517f08c379a0000000000000000000000000000000000000000000000000000000008152600401610cf8906134e3565b60405180910390fd5b5050565b610d20838383604051806020016040528060008152506110c2565b505050565b6000610d2f6109b2565b8210610d70576040517f08c379a0000000000000000000000000000000000000000000000000000000008152600401610d6790613575565b60405180910390fd5b60088281548110610d8457610d83613595565b5b90600052602060002001549050919050565b610d9e611520565b80600c9080519060200190610db4929190612698565b5050565b6000806002600084815260200190815260200160002060009054906101000a900473ffffffffffffffffffffffffffffffffffffffff169050600073ffffffffffffffffffffffffffffffffffffffff168173ffffffffffffffffffffffffffffffffffffffff161415610e61576040517f08c379a0000000000000000000000000000000000000000000000000000000008152600401610e5890613610565b60405180910390fd5b80915050919050565b60008073ffffffffffffffffffffffffffffffffffffffff168273ffffffffffffffffffffffffffffffffffffffff161415610edb576040517f08c379a0000000000000000000000000000000000000000000000000000000008152600401610ed2906136a2565b60405180910390fd5b600360008373ffffffffffffffffffffffffffffffffffffffff1673ffffffffffffffffffffffffffffffffffffffff168152602001908152602001600020549050919050565b610f2a611520565b610f3460006118f9565b565b60606000610f4383610e6a565b905060008167ffffffffffffffff811115610f6157610f60612a77565b5b604051908082528060200260200182016040528015610f8f5781602001602082028036833780820191505090505b50905060005b82811015610fd957610fa78582610a1f565b828281518110610fba57610fb9613595565b5b6020026020010181815250508080610fd1906130e8565b915050610f95565b508092505050919050565b67ebec21ee1da4000081565b6000600a60009054906101000a900473ffffffffffffffffffffffffffffffffffffffff16905090565b60606001805461102990612ef7565b80601f016020809104026020016040519081016040528092919081815260200182805461105590612ef7565b80156110a25780601f10611077576101008083540402835291602001916110a2565b820191906000526020600020905b81548152906001019060200180831161108557829003601f168201915b5050505050905090565b6110be6110b761145f565b83836119bf565b5050565b6110d36110cd61145f565b836115e7565b611112576040517f08c379a0000000000000000000000000000000000000000000000000000000008152600401611109906131a3565b60405180910390fd5b61111e84848484611b2c565b50505050565b606061112f82611414565b6000611139611b88565b905060008151116111595760405180602001604052806000815250611184565b8061116384611c1a565b6040516020016111749291906136fe565b6040516020818303038152906040525b915050919050565b600c805461119990612ef7565b80601f01602080910402602001604051908101604052809291908181526020018280546111c590612ef7565b80156112125780601f106111e757610100808354040283529160200191611212565b820191906000526020600020905b8154815290600101906020018083116111f557829003601f168201915b505050505081565b6000600560008473ffffffffffffffffffffffffffffffffffffffff1673ffffffffffffffffffffffffffffffffffffffff16815260200190815260200160002060008373ffffffffffffffffffffffffffffffffffffffff1673ffffffffffffffffffffffffffffffffffffffff16815260200190815260200160002060009054906101000a900460ff16905092915050565b6112b6611520565b600073ffffffffffffffffffffffffffffffffffffffff168173ffffffffffffffffffffffffffffffffffffffff161415611326576040517f08c379a000000000000000000000000000000000000000000000000000000000815260040161131d90613794565b60405180910390fd5b61132f816118f9565b50565b60007f80ac58cd000000000000000000000000000000000000000000000000000000007bffffffffffffffffffffffffffffffffffffffffffffffffffffffff1916827bffffffffffffffffffffffffffffffffffffffffffffffffffffffff191614806113fd57507f5b5e139f000000000000000000000000000000000000000000000000000000007bffffffffffffffffffffffffffffffffffffffffffffffffffffffff1916827bffffffffffffffffffffffffffffffffffffffffffffffffffffffff1916145b8061140d575061140c82611d7b565b5b9050919050565b61141d81611de5565b61145c576040517f08c379a000000000000000000000000000000000000000000000000000000000815260040161145390613610565b60405180910390fd5b50565b600033905090565b816004600083815260200190815260200160002060006101000a81548173ffffffffffffffffffffffffffffffffffffffff021916908373ffffffffffffffffffffffffffffffffffffffff160217905550808273ffffffffffffffffffffffffffffffffffffffff166114da83610db8565b73ffffffffffffffffffffffffffffffffffffffff167f8c5be1e5ebec7d5bd14f71427d1e84f3dd0314c0f7b2291e5b200ac8c7c3b92560405160405180910390a45050565b61152861145f565b73ffffffffffffffffffffffffffffffffffffffff16611546610ff0565b73ffffffffffffffffffffffffffffffffffffffff161461159c576040517f08c379a000000000000000000000000000000000000000000000000000000000815260040161159390613800565b60405180910390fd5b565b600081600001549050919050565b600081836115ba9190613820565b905092915050565b60006115ce600b61159e565b90506115da3382611e51565b6115e4600b611e6f565b50565b6000806115f383610db8565b90508073ffffffffffffffffffffffffffffffffffffffff168473ffffffffffffffffffffffffffffffffffffffff1614806116355750611634818561121a565b5b8061167357508373ffffffffffffffffffffffffffffffffffffffff1661165b846107b8565b73ffffffffffffffffffffffffffffffffffffffff16145b91505092915050565b8273ffffffffffffffffffffffffffffffffffffffff1661169c82610db8565b73ffffffffffffffffffffffffffffffffffffffff16146116f2576040517f08c379a00000000000000000000000000000000000000000000000000000000081526004016116e9906138e8565b60405180910390fd5b600073ffffffffffffffffffffffffffffffffffffffff168273ffffffffffffffffffffffffffffffffffffffff161415611762576040517f08c379a00000000000000000000000000000000000000000000000000000000081526004016117599061397a565b60405180910390fd5b61176d838383611e85565b611778600082611467565b6001600360008573ffffffffffffffffffffffffffffffffffffffff1673ffffffffffffffffffffffffffffffffffffffff16815260200190815260200160002060008282546117c8919061399a565b925050819055506001600360008473ffffffffffffffffffffffffffffffffffffffff1673ffffffffffffffffffffffffffffffffffffffff168152602001908152602001600020600082825461181f9190613820565b92505081905550816002600083815260200190815260200160002060006101000a81548173ffffffffffffffffffffffffffffffffffffffff021916908373ffffffffffffffffffffffffffffffffffffffff160217905550808273ffffffffffffffffffffffffffffffffffffffff168473ffffffffffffffffffffffffffffffffffffffff167fddf252ad1be2c89b69c2b068fc378daa952ba7f163c4a11628f55a4df523b3ef60405160405180910390a46118de838383611f99565b505050565b600081836118f191906139ce565b905092915050565b6000600a60009054906101000a900473ffffffffffffffffffffffffffffffffffffffff16905081600a60006101000a81548173ffffffffffffffffffffffffffffffffffffffff021916908373ffffffffffffffffffffffffffffffffffffffff1602179055508173ffffffffffffffffffffffffffffffffffffffff168173ffffffffffffffffffffffffffffffffffffffff167f8be0079c531659141344cd1fd0a4f28419497f9722a3daafe3b4186f6b6457e060405160405180910390a35050565b8173ffffffffffffffffffffffffffffffffffffffff168373ffffffffffffffffffffffffffffffffffffffff161415611a2e576040517f08c379a0000000000000000000000000000000000000000000000000000000008152600401611a2590613a74565b60405180910390fd5b80600560008573ffffffffffffffffffffffffffffffffffffffff1673ffffffffffffffffffffffffffffffffffffffff16815260200190815260200160002060008473ffffffffffffffffffffffffffffffffffffffff1673ffffffffffffffffffffffffffffffffffffffff16815260200190815260200160002060006101000a81548160ff0219169083151502179055508173ffffffffffffffffffffffffffffffffffffffff168373ffffffffffffffffffffffffffffffffffffffff167f17307eab39ab6107e8899845ad3d59bd9653f200f220920489ca2b5937696c3183604051611b1f91906127ef565b60405180910390a3505050565b611b3784848461167c565b611b4384848484611f9e565b611b82576040517f08c379a0000000000000000000000000000000000000000000000000000000008152600401611b7990613b06565b60405180910390fd5b50505050565b6060600c8054611b9790612ef7565b80601f0160208091040260200160405190810160405280929190818152602001828054611bc390612ef7565b8015611c105780601f10611be557610100808354040283529160200191611c10565b820191906000526020600020905b815481529060010190602001808311611bf357829003601f168201915b5050505050905090565b60606000821415611c62576040518060400160405280600181526020017f30000000000000000000000000000000000000000000000000000000000000008152509050611d76565b600082905060005b60008214611c94578080611c7d906130e8565b915050600a82611c8d9190613b55565b9150611c6a565b60008167ffffffffffffffff811115611cb057611caf612a77565b5b6040519080825280601f01601f191660200182016040528015611ce25781602001600182028036833780820191505090505b5090505b60008514611d6f57600182611cfb919061399a565b9150600a85611d0a9190613b86565b6030611d169190613820565b60f81b818381518110611d2c57611d2b613595565b5b60200101907effffffffffffffffffffffffffffffffffffffffffffffffffffffffffffff1916908160001a905350600a85611d689190613b55565b9450611ce6565b8093505050505b919050565b60007f01ffc9a7000000000000000000000000000000000000000000000000000000007bffffffffffffffffffffffffffffffffffffffffffffffffffffffff1916827bffffffffffffffffffffffffffffffffffffffffffffffffffffffff1916149050919050565b60008073ffffffffffffffffffffffffffffffffffffffff166002600084815260200190815260200160002060009054906101000a900473ffffffffffffffffffffffffffffffffffffffff1673ffffffffffffffffffffffffffffffffffffffff1614159050919050565b611e6b828260405180602001604052806000815250612135565b5050565b6001816000016000828254019250508190555050565b611e90838383612190565b600073ffffffffffffffffffffffffffffffffffffffff168373ffffffffffffffffffffffffffffffffffffffff161415611ed357611ece81612195565b611f12565b8173ffffffffffffffffffffffffffffffffffffffff168373ffffffffffffffffffffffffffffffffffffffff1614611f1157611f1083826121de565b5b5b600073ffffffffffffffffffffffffffffffffffffffff168273ffffffffffffffffffffffffffffffffffffffff161415611f5557611f508161234b565b611f94565b8273ffffffffffffffffffffffffffffffffffffffff168273ffffffffffffffffffffffffffffffffffffffff1614611f9357611f92828261241c565b5b5b505050565b505050565b6000611fbf8473ffffffffffffffffffffffffffffffffffffffff1661249b565b15612128578373ffffffffffffffffffffffffffffffffffffffff1663150b7a02611fe861145f565b8786866040518563ffffffff1660e01b815260040161200a9493929190613c0c565b602060405180830381600087803b15801561202457600080fd5b505af192505050801561205557506040513d601f19601f820116820180604052508101906120529190613c6d565b60015b6120d8573d8060008114612085576040519150601f19603f3d011682016040523d82523d6000602084013e61208a565b606091505b506000815114156120d0576040517f08c379a00000000000000000000000000000000000000000000000000000000081526004016120c790613b06565b60405180910390fd5b805181602001fd5b63150b7a0260e01b7bffffffffffffffffffffffffffffffffffffffffffffffffffffffff1916817bffffffffffffffffffffffffffffffffffffffffffffffffffffffff19161491505061212d565b600190505b949350505050565b61213f83836124be565b61214c6000848484611f9e565b61218b576040517f08c379a000000000000000000000000000000000000000000000000000000000815260040161218290613b06565b60405180910390fd5b505050565b505050565b6008805490506009600083815260200190815260200160002081905550600881908060018154018082558091505060019003906000526020600020016000909190919091505550565b600060016121eb84610e6a565b6121f5919061399a565b90506000600760008481526020019081526020016000205490508181146122da576000600660008673ffffffffffffffffffffffffffffffffffffffff1673ffffffffffffffffffffffffffffffffffffffff168152602001908152602001600020600084815260200190815260200160002054905080600660008773ffffffffffffffffffffffffffffffffffffffff1673ffffffffffffffffffffffffffffffffffffffff168152602001908152602001600020600084815260200190815260200160002081905550816007600083815260200190815260200160002081905550505b6007600084815260200190815260200160002060009055600660008573ffffffffffffffffffffffffffffffffffffffff1673ffffffffffffffffffffffffffffffffffffffff16815260200190815260200160002060008381526020019081526020016000206000905550505050565b6000600160088054905061235f919061399a565b905060006009600084815260200190815260200160002054905060006008838154811061238f5761238e613595565b5b9060005260206000200154905080600883815481106123b1576123b0613595565b5b906000526020600020018190555081600960008381526020019081526020016000208190555060096000858152602001908152602001600020600090556008805480612400576123ff613c9a565b5b6001900381819060005260206000200160009055905550505050565b600061242783610e6a565b905081600660008573ffffffffffffffffffffffffffffffffffffffff1673ffffffffffffffffffffffffffffffffffffffff168152602001908152602001600020600083815260200190815260200160002081905550806007600084815260200190815260200160002081905550505050565b6000808273ffffffffffffffffffffffffffffffffffffffff163b119050919050565b600073ffffffffffffffffffffffffffffffffffffffff168273ffffffffffffffffffffffffffffffffffffffff16141561252e576040517f08c379a000000000000000000000000000000000000000000000000000000000815260040161252590613d15565b60405180910390fd5b61253781611de5565b15612577576040517f08c379a000000000000000000000000000000000000000000000000000000000815260040161256e90613d81565b60405180910390fd5b61258360008383611e85565b6001600360008473ffffffffffffffffffffffffffffffffffffffff1673ffffffffffffffffffffffffffffffffffffffff16815260200190815260200160002060008282546125d39190613820565b92505081905550816002600083815260200190815260200160002060006101000a81548173ffffffffffffffffffffffffffffffffffffffff021916908373ffffffffffffffffffffffffffffffffffffffff160217905550808273ffffffffffffffffffffffffffffffffffffffff16600073ffffffffffffffffffffffffffffffffffffffff167fddf252ad1be2c89b69c2b068fc378daa952ba7f163c4a11628f55a4df523b3ef60405160405180910390a461269460008383611f99565b5050565b8280546126a490612ef7565b90600052602060002090601f0160209004810192826126c6576000855561270d565b82601f106126df57805160ff191683800117855561270d565b8280016001018555821561270d579182015b8281111561270c5782518255916020019190600101906126f1565b5b50905061271a919061271e565b5090565b5b8082111561273757600081600090555060010161271f565b5090565b6000604051905090565b600080fd5b600080fd5b60007fffffffff0000000000000000000000000000000000000000000000000000000082169050919050565b6127848161274f565b811461278f57600080fd5b50565b6000813590506127a18161277b565b92915050565b6000602082840312156127bd576127bc612745565b5b60006127cb84828501612792565b91505092915050565b60008115159050919050565b6127e9816127d4565b82525050565b600060208201905061280460008301846127e0565b92915050565b600081519050919050565b600082825260208201905092915050565b60005b83811015612844578082015181840152602081019050612829565b83811115612853576000848401525b50505050565b6000601f19601f8301169050919050565b60006128758261280a565b61287f8185612815565b935061288f818560208601612826565b61289881612859565b840191505092915050565b600060208201905081810360008301526128bd818461286a565b905092915050565b6000819050919050565b6128d8816128c5565b81146128e357600080fd5b50565b6000813590506128f5816128cf565b92915050565b60006020828403121561291157612910612745565b5b600061291f848285016128e6565b91505092915050565b600073ffffffffffffffffffffffffffffffffffffffff82169050919050565b600061295382612928565b9050919050565b61296381612948565b82525050565b600060208201905061297e600083018461295a565b92915050565b61298d81612948565b811461299857600080fd5b50565b6000813590506129aa81612984565b92915050565b600080604083850312156129c7576129c6612745565b5b60006129d58582860161299b565b92505060206129e6858286016128e6565b9150509250929050565b6129f9816128c5565b82525050565b6000602082019050612a1460008301846129f0565b92915050565b600080600060608486031215612a3357612a32612745565b5b6000612a418682870161299b565b9350506020612a528682870161299b565b9250506040612a63868287016128e6565b9150509250925092565b600080fd5b600080fd5b7f4e487b7100000000000000000000000000000000000000000000000000000000600052604160045260246000fd5b612aaf82612859565b810181811067ffffffffffffffff82111715612ace57612acd612a77565b5b80604052505050565b6000612ae161273b565b9050612aed8282612aa6565b919050565b600067ffffffffffffffff821115612b0d57612b0c612a77565b5b612b1682612859565b9050602081019050919050565b82818337600083830152505050565b6000612b45612b4084612af2565b612ad7565b905082815260208101848484011115612b6157612b60612a72565b5b612b6c848285612b23565b509392505050565b600082601f830112612b8957612b88612a6d565b5b8135612b99848260208601612b32565b91505092915050565b600060208284031215612bb857612bb7612745565b5b600082013567ffffffffffffffff811115612bd657612bd561274a565b5b612be284828501612b74565b91505092915050565b600060208284031215612c0157612c00612745565b5b6000612c0f8482850161299b565b91505092915050565b600081519050919050565b600082825260208201905092915050565b6000819050602082019050919050565b612c4d816128c5565b82525050565b6000612c5f8383612c44565b60208301905092915050565b6000602082019050919050565b6000612c8382612c18565b612c8d8185612c23565b9350612c9883612c34565b8060005b83811015612cc9578151612cb08882612c53565b9750612cbb83612c6b565b925050600181019050612c9c565b5085935050505092915050565b60006020820190508181036000830152612cf08184612c78565b905092915050565b612d01816127d4565b8114612d0c57600080fd5b50565b600081359050612d1e81612cf8565b92915050565b60008060408385031215612d3b57612d3a612745565b5b6000612d498582860161299b565b9250506020612d5a85828601612d0f565b9150509250929050565b600067ffffffffffffffff821115612d7f57612d7e612a77565b5b612d8882612859565b9050602081019050919050565b6000612da8612da384612d64565b612ad7565b905082815260208101848484011115612dc457612dc3612a72565b5b612dcf848285612b23565b509392505050565b600082601f830112612dec57612deb612a6d565b5b8135612dfc848260208601612d95565b91505092915050565b60008060008060808587031215612e1f57612e1e612745565b5b6000612e2d8782880161299b565b9450506020612e3e8782880161299b565b9350506040612e4f878288016128e6565b925050606085013567ffffffffffffffff811115612e7057612e6f61274a565b5b612e7c87828801612dd7565b91505092959194509250565b60008060408385031215612e9f57612e9e612745565b5b6000612ead8582860161299b565b9250506020612ebe8582860161299b565b9150509250929050565b7f4e487b7100000000000000000000000000000000000000000000000000000000600052602260045260246000fd5b60006002820490506001821680612f0f57607f821691505b60208210811415612f2357612f22612ec8565b5b50919050565b7f4552433732313a20617070726f76616c20746f2063757272656e74206f776e6560008201527f7200000000000000000000000000000000000000000000000000000000000000602082015250565b6000612f85602183612815565b9150612f9082612f29565b604082019050919050565b60006020820190508181036000830152612fb481612f78565b9050919050565b7f4552433732313a20617070726f76652063616c6c6572206973206e6f7420746f60008201527f6b656e206f776e6572206e6f7220617070726f76656420666f7220616c6c0000602082015250565b6000613017603e83612815565b915061302282612fbb565b604082019050919050565b600060208201905081810360008301526130468161300a565b9050919050565b7f4e6f7420656e6f756768204e4654730000000000000000000000000000000000600082015250565b6000613083600f83612815565b915061308e8261304d565b602082019050919050565b600060208201905081810360008301526130b281613076565b9050919050565b7f4e487b7100000000000000000000000000000000000000000000000000000000600052601160045260246000fd5b60006130f3826128c5565b91507fffffffffffffffffffffffffffffffffffffffffffffffffffffffffffffffff821415613126576131256130b9565b5b600182019050919050565b7f4552433732313a2063616c6c6572206973206e6f7420746f6b656e206f776e6560008201527f72206e6f7220617070726f766564000000000000000000000000000000000000602082015250565b600061318d602e83612815565b915061319882613131565b604082019050919050565b600060208201905081810360008301526131bc81613180565b9050919050565b7f455243373231456e756d657261626c653a206f776e657220696e646578206f7560008201527f74206f6620626f756e6473000000000000000000000000000000000000000000602082015250565b600061321f602b83612815565b915061322a826131c3565b604082019050919050565b6000602082019050818103600083015261324e81613212565b9050919050565b7f4e6f7420656e6f756768204e4654732100000000000000000000000000000000600082015250565b600061328b601083612815565b915061329682613255565b602082019050919050565b600060208201905081810360008301526132ba8161327e565b9050919050565b7f43616e6e6f74206d696e7420737065636966696564206e756d626572206f662060008201527f4e4654732e000000000000000000000000000000000000000000000000000000602082015250565b600061331d602583612815565b9150613328826132c1565b604082019050919050565b6000602082019050818103600083015261334c81613310565b9050919050565b7f4e6f7420656e6f75676820657468657220746f207075726368617365204e465460008201527f732e000000000000000000000000000000000000000000000000000000000000602082015250565b60006133af602283612815565b91506133ba82613353565b604082019050919050565b600060208201905081810360008301526133de816133a2565b9050919050565b7f4e6f206574686572206c65667420746f2077697468647261772e000000000000600082015250565b600061341b601a83612815565b9150613426826133e5565b602082019050919050565b6000602082019050818103600083015261344a8161340e565b9050919050565b600081905092915050565b50565b600061346c600083613451565b91506134778261345c565b600082019050919050565b600061348d8261345f565b9150819050919050565b7f5472616e73666572206661696c65640000000000000000000000000000000000600082015250565b60006134cd600f83612815565b91506134d882613497565b602082019050919050565b600060208201905081810360008301526134fc816134c0565b9050919050565b7f455243373231456e756d657261626c653a20676c6f62616c20696e646578206f60008201527f7574206f6620626f756e64730000000000000000000000000000000000000000602082015250565b600061355f602c83612815565b915061356a82613503565b604082019050919050565b6000602082019050818103600083015261358e81613552565b9050919050565b7f4e487b7100000000000000000000000000000000000000000000000000000000600052603260045260246000fd5b7f4552433732313a20696e76616c696420746f6b656e2049440000000000000000600082015250565b60006135fa601883612815565b9150613605826135c4565b602082019050919050565b60006020820190508181036000830152613629816135ed565b9050919050565b7f4552433732313a2061646472657373207a65726f206973206e6f74206120766160008201527f6c6964206f776e65720000000000000000000000000000000000000000000000602082015250565b600061368c602983612815565b915061369782613630565b604082019050919050565b600060208201905081810360008301526136bb8161367f565b9050919050565b600081905092915050565b60006136d88261280a565b6136e281856136c2565b93506136f2818560208601612826565b80840191505092915050565b600061370a82856136cd565b915061371682846136cd565b91508190509392505050565b7f4f776e61626c653a206e6577206f776e657220697320746865207a65726f206160008201527f6464726573730000000000000000000000000000000000000000000000000000602082015250565b600061377e602683612815565b915061378982613722565b604082019050919050565b600060208201905081810360008301526137ad81613771565b9050919050565b7f4f776e61626c653a2063616c6c6572206973206e6f7420746865206f776e6572600082015250565b60006137ea602083612815565b91506137f5826137b4565b602082019050919050565b60006020820190508181036000830152613819816137dd565b9050919050565b600061382b826128c5565b9150613836836128c5565b9250827fffffffffffffffffffffffffffffffffffffffffffffffffffffffffffffffff0382111561386b5761386a6130b9565b5b828201905092915050565b7f4552433732313a207472616e736665722066726f6d20696e636f72726563742060008201527f6f776e6572000000000000000000000000000000000000000000000000000000602082015250565b60006138d2602583612815565b91506138dd82613876565b604082019050919050565b60006020820190508181036000830152613901816138c5565b9050919050565b7f4552433732313a207472616e7366657220746f20746865207a65726f2061646460008201527f7265737300000000000000000000000000000000000000000000000000000000602082015250565b6000613964602483612815565b915061396f82613908565b604082019050919050565b6000602082019050818103600083015261399381613957565b9050919050565b60006139a5826128c5565b91506139b0836128c5565b9250828210156139c3576139c26130b9565b5b828203905092915050565b60006139d9826128c5565b91506139e4836128c5565b9250817fffffffffffffffffffffffffffffffffffffffffffffffffffffffffffffffff0483118215151615613a1d57613a1c6130b9565b5b828202905092915050565b7f4552433732313a20617070726f766520746f2063616c6c657200000000000000600082015250565b6000613a5e601983612815565b9150613a6982613a28565b602082019050919050565b60006020820190508181036000830152613a8d81613a51565b9050919050565b7f4552433732313a207472616e7366657220746f206e6f6e20455243373231526560008201527f63656976657220696d706c656d656e7465720000000000000000000000000000602082015250565b6000613af0603283612815565b9150613afb82613a94565b604082019050919050565b60006020820190508181036000830152613b1f81613ae3565b9050919050565b7f4e487b7100000000000000000000000000000000000000000000000000000000600052601260045260246000fd5b6000613b60826128c5565b9150613b6b836128c5565b925082613b7b57613b7a613b26565b5b828204905092915050565b6000613b91826128c5565b9150613b9c836128c5565b925082613bac57613bab613b26565b5b828206905092915050565b600081519050919050565b600082825260208201905092915050565b6000613bde82613bb7565b613be88185613bc2565b9350613bf8818560208601612826565b613c0181612859565b840191505092915050565b6000608082019050613c21600083018761295a565b613c2e602083018661295a565b613c3b60408301856129f0565b8181036060830152613c4d8184613bd3565b905095945050505050565b600081519050613c678161277b565b92915050565b600060208284031215613c8357613c82612745565b5b6000613c9184828501613c58565b91505092915050565b7f4e487b7100000000000000000000000000000000000000000000000000000000600052603160045260246000fd5b7f4552433732313a206d696e7420746f20746865207a65726f2061646472657373600082015250565b6000613cff602083612815565b9150613d0a82613cc9565b602082019050919050565b60006020820190508181036000830152613d2e81613cf2565b9050919050565b7f4552433732313a20746f6b656e20616c7265616479206d696e74656400000000600082015250565b6000613d6b601c83612815565b9150613d7682613d35565b602082019050919050565b60006020820190508181036000830152613d9a81613d5e565b905091905056fea2646970667358221220327584dee667a2cc6520dc98dfc290573bd9efa87425f1ceae396f30a51edd4864736f6c63430008090033",
    "linkReferences": {},
    "deployedLinkReferences": {}
}